:100000000C9434000C9451000C9451000C94510049
:100010000C9451000C9451000C9451000C94BA01B2
:100020000C9451000C9451000C9451000C945B0101
:100030000C9451000C9451000C9451000C945100FC
:100040000C9451000C9451000C9451000C945100EC
:100050000C9451000C9470010C9451000C945100BC
:100060000C9451000C94510011241FBECFEFD8E026
:10007000DEBFCDBF11E0A0E0B1E0E2EEF8E002C0EB
:1000800005900D92A232B107D9F722E0A2E2B1E0C9
:1000900001C01D92AD32B207E1F70E9438020C9404
:1000A0006F040C94000010922A0110922901109202
:1000B00028011092270108954091290150912A01A9
:1000C000209127013091280181E04217530709F060
:1000D00080E008952091290130912A018091270123
:1000E00090912801019660E870E00E94580241E07A
:1000F0002817390709F040E0842F0895ECE7F0E075
:100100001082808180648083EAE7F0E080818760EC
:10011000808310927B0080818068808380818860EA
:10012000808378940895BC0180E090E00E947E0373
:100130009B01AC0160E074E284E796E40E94E50272
:1001400020E030E040E85FE30E9480020E944D031F
:100150007093890060938800EFE6F0E08081826010
:100160008083E1E8F0E08081886080838081856021
:1001700080837894089520E034E244E757E40E94B5
:100180000C0420E030E040E85FE30E9480020E941F
:100190004D036093B300E0EBF0E0808182608083E8
:1001A000E1EBF0E0808186608083E0E7F0E0808131
:1001B00082608083789408951092C50089E18093CD
:1001C000C400E1ECF0E080818861808386E0809368
:1001D000C20008959091C00095FFFCCF8093C600A7
:1001E00008958091C00087FFFCCF8091C6000895DC
:1001F0000F931F93CF93DF93EC0109900020E9F751
:100200008C0121970C171D0731F0F80181918F01A6
:100210000E94EA00F7CFDF91CF911F910F910895CF
:10022000CF93DF93EC010E946A00882331F083E0D2
:1002300091E0DF91CF910C94F800E0912701F091CB
:100240002801EE0FFF1FE55DFE4FD183C083809133
:10025000270190912801019660E870E00E94580201
:100260009093280180932701DF91CF9108950E94F8
:100270005C00882339F082E191E00E94F80080E080
:1002800090E00895E0912901F0912A01EE0FFF1FFF
:10029000E55DFE4F208131818091290190912A01F5
:1002A000019660E870E00E94580290932A018093C2
:1002B0002901C90108951F920F920FB60F921124C0
:1002C0008F9380912601823029F480917A00806496
:1002D00080937A008F910F900FBE0F901F9018950A
:1002E0001F920F920FB60F9211242F933F934F93AB
:1002F0005F936F937F938F939F93AF93BF93EF938E
:10030000FF93CF93DF9300D000D0CDB7DEB78091BD
:10031000780090E09C838B838091790090E09A83B1
:10032000898389819A812B813C81982F8827820F2C
:10033000931F90932C0280932B0280912B0290911B
:100340002C020E9410010F900F900F900F90DF91E0
:10035000CF91FF91EF91BF91AF919F918F917F913D
:100360006F915F914F913F912F910F900FBE0F9022
:100370001F9018951F920F920FB60F9211241F9382
:100380002F933F934F935F936F937F938F939F939D
:10039000AF93BF93EF93FF93CF93DF931F92CDB7AC
:1003A000DEB780910001813029F48CE50E94EA00DB
:1003B00082E027C080910001833051F52091240113
:1003C0003091250180910101909102012817390790
:1003D000B8F40E945C00811136C00E9437019983F5
:1003E0000E94EA009981892F0E94EA0080912401ED
:1003F000909125010196909325018093240123C0BB
:1004000084E08093000110922501109224011BC00A
:1004100080910001843039F481E08093000185EC03
:100420000E94EA0010C080910001823061F41091B6
:100430000201809101010E94EA00812F0E94EA00DE
:1004400083E0809300010F90DF91CF91FF91EF91B6
:10045000BF91AF919F918F917F916F915F914F91DC
:100460003F912F911F910F900FBE0F901F901895E5
:100470000E9453000E94DC0082E08093260181E00C
:10048000809300010E947E0088EE93E00E9493001A
:100490006FE672E183E09AE30E94BB002FEF81EEEA
:1004A00094E0215080409040E1F700C00000F6CF7A
:1004B00097FB072E16F4009407D077FD09D00E9411
:1004C0006C0207FC05D03EF4909581959F4F0895EE
:1004D000709561957F4F0895AA1BBB1B51E107C022
:1004E000AA1FBB1FA617B70710F0A61BB70B881FC4
:1004F000991F5A95A9F780959095BC01CD01089553
:100500005058BB27AA270ED04DC13ED130F043D161
:1005100020F031F49F3F11F41EF433C10EF4E09546
:10052000E7FB29C1E92F4FD180F3BA1762077307A0
:100530008407950718F071F49EF567C10EF4E095F5
:100540000B2EBA2FA02D0B01B90190010C01CA018D
:10055000A0011124FF27591B99F0593F50F4503E38
:1005600068F11A16F040A22F232F342F4427585F2A
:10057000F3CF469537952795A795F0405395C9F742
:100580007EF41F16BA0B620B730B840BBAF09150FA
:10059000A1F0FF0FBB1F661F771F881FC2F70EC099
:1005A000BA0F621F731F841F48F48795779567956C
:1005B000B795F7959E3F08F0B3CF9395880F08F055
:1005C0009927EE0F9795879508950CD0EBC0E3D04F
:1005D00040F0DAD030F021F45F3F19F0CCC0511177
:1005E00015C1CFC0F0D098F39923C9F35523B1F3C7
:1005F000951B550BBB27AA2762177307840738F092
:100600009F5F5F4F220F331F441FAA1FA9F333D0F0
:100610000E2E3AF0E0E830D091505040E695001CA4
:10062000CAF729D0FE2F27D0660F771F881FBB1F60
:10063000261737074807AB07B0E809F0BB0B802D3A
:10064000BF01FF2793585F4F2AF09E3F510568F086
:1006500092C0DCC05F3FECF3983EDCF38695779563
:100660006795B795F7959F5FC9F7880F911D969588
:10067000879597F90895E1E0660F771F881FBB1FE4
:10068000621773078407BA0720F0621B730B840B91
:10069000BA0BEE1F88F7E095089504D06894B11165
:1006A000B5C0089598D088F09F5790F0B92F99273A
:1006B000B751A0F0D1F0660F771F881F991F1AF06D
:1006C000BA95C9F712C0B13081F09FD0B1E008955A
:1006D0009CC0672F782F8827B85F39F0B93FCCF3DB
:1006E000869577956795B395D9F73EF49095809563
:1006F000709561957F4F8F4F9F4F0895E89409C083
:1007000097FB3EF490958095709561957F4F8F4F44
:100710009F4F9923A9F0F92F96E9BB279395F6955A
:10072000879577956795B795F111F8CFFAF4BB0FD8
:1007300011F460FF1BC06F5F7F4F8F4F9F4F16C03C
:10074000882311F096E911C0772321F09EE8872FC6
:10075000762F05C0662371F096E8862F70E060E082
:100760002AF09A95660F771F881FDAF7880F9695FB
:10077000879597F9089597F99F6780E870E060E0A2
:1007800008959FEF80EC089500240A94161617062A
:1007900018060906089500240A9412161306140672
:1007A00005060895092E0394000C11F4882352F0D5
:1007B000BB0F40F4BF2B11F460FF04C06F5F7F4F8D
:1007C0008F4F9F4F089557FD9058440F551F59F074
:1007D0005F3F71F04795880F97FB991F61F09F3F2E
:1007E00079F087950895121613061406551FF2CF57
:1007F0004695F1DF08C0161617061806991FF1CFA7
:1008000086957105610508940895E894BB276627CD
:100810007727CB0197F908950BD0C4CFB5DF28F027
:10082000BADF18F0952309F0A6CFABCF1124EECF95
:10083000CADFA0F3959FD1F3950F50E0551F629F3B
:10084000F001729FBB27F00DB11D639FAA27F00D29
:10085000B11DAA1F649F6627B00DA11D661F829F50
:100860002227B00DA11D621F739FB00DA11D621F35
:10087000839FA00D611D221F749F3327A00D611D52
:10088000231F849F600D211D822F762F6A2F112434
:100890009F5750408AF0E1F088234AF0EE0FFF1F87
:1008A000BB1F661F771F881F91505040A9F79E3FBE
:1008B000510570F060CFAACF5F3FECF3983EDCF3B8
:1008C000869577956795B795F795E7959F5FC1F7FB
:1008D000FE2B880F911D9695879597F90895F894AA
:0208E000FFCF48
:1008E20001000451756575652069732066756C6C2D
:1008F2002100517565756520697320656D70747985
:020902002100D2
:00000001FF
