:100000000C9434000C9451000C9451000C94510049
:100010000C9451000C9451000C9451000C9451001C
:100020000C9451000C9451000C9451000C943A0122
:100030000C9451000C9451000C9451000C945100FC
:100040000C9451000C9451000C9451000C945100EC
:100050000C9451000C94C1010C9451000C9451006B
:100060000C9451000C94510011241FBECFEFD8E026
:10007000DEBFCDBF11E0A0E0B1E0E6EBF7E002C0EB
:1000800005900D92A232B107D9F722E0A2E2B1E0C9
:1000900001C01D92AB32B207E1F70E940B020C9433
:1000A000D9030C940000109228011092270110929D
:1000B00026011092250108954091270150912801B1
:1000C000209125013091260181E04217530709F064
:1000D00080E0089520912701309128018091250129
:1000E00090912601019660E870E00E94250241E0AF
:1000F0002817390709F040E0842F0895ECE7F0E075
:100100001082808180648083EAE7F0E080818760EC
:10011000808310927B0080818068808380818860EA
:10012000808378940895BC0180E090E00E944B03A6
:100130009B01AC0160E074E284E796E40E94B202A5
:1001400020E030E040E85FE30E944D020E941A0385
:100150007093890060938800EFE6F0E08081826010
:100160008083E1E8F0E08081886080838081856021
:100170008083789408951092C50083E38093C4002F
:10018000E1ECF0E080818861808386E08093C200AA
:1001900008959091C00095FFFCCF8093C60008950C
:1001A0008091C00087FFFCCF8091C60008950F9317
:1001B0001F93CF93DF93EC0109900020E9F78C01A6
:1001C00021970C171D0731F0F80181918F010E94D2
:1001D000C900F7CFDF91CF911F910F910895CF9371
:1001E000DF93EC010E946A00882331F083E091E004
:1001F000DF91CF910C94D700E0912501F091260179
:10020000EE0FFF1FE75DFE4FD183C0838091250174
:1002100090912601019660E870E00E94250290937B
:10022000260180932501DF91CF9108950E945C0003
:10023000882339F082E191E00E94D70080E090E0CD
:100240000895E0912701F0912801EE0FFF1FE75D6F
:10025000FE4F2081318180912701909128010196E4
:1002600060E870E00E9425029093280180932701A6
:10027000C90108951F920F920FB60F9211241F9378
:100280002F933F934F935F936F937F938F939F939E
:10029000AF93BF93EF93FF93CF93DF931F92CDB7AD
:1002A000DEB780912401823029F480917A00806445
:1002B00080937A0080910001813029F48CE50E94BE
:1002C000C90082E027C080910001833051F5209160
:1002D00022013091230180910101909102012817A0
:1002E0003907B8F40E945C00811136C00E941601E3
:1002F00099830E94C9009981892F0E94C900809129
:100300002201909123010196909323018093220171
:1003100023C084E0809300011092230110922201F7
:100320001BC080910001843039F481E0809300018A
:1003300085EC0E94C90010C080910001823061F4F8
:1003400010910201809101010E94C900812F0E9439
:10035000C90083E0809300010F90DF91CF91FF915E
:10036000EF91BF91AF919F918F917F916F915F912D
:100370004F913F912F911F910F900FBE0F901F90A3
:1003800018951F920F920FB60F9211242F933F933F
:100390004F935F936F937F938F939F93AF93BF938D
:1003A000EF93FF93CF93DF9300D000D0CDB7DEB7AC
:1003B0008091780090E09C838B838091790090E01D
:1003C0009A83898389819A812B813C81982F882700
:1003D000820F931F90932A02809329028091290211
:1003E00090912A020E94EF000F900F900F900F90B3
:1003F000DF91CF91FF91EF91BF91AF919F918F913D
:100400007F916F915F914F913F912F910F900FBE10
:100410000F901F9018950E9453000E94BB0082E02D
:100420008093240181E0809300010E947E0088EE89
:1004300093E00E9493002FEF81EE94E021508040E2
:100440009040E1F700C00000F6CF97FB072E16F4AE
:10045000009407D077FD09D00E94390207FC05D02F
:100460003EF4909581959F4F0895709561957F4FCB
:100470000895AA1BBB1B51E107C0AA1FBB1FA617EB
:10048000B70710F0A61BB70B881F991F5A95A9F73D
:1004900080959095BC01CD0108955058BB27AA279F
:1004A0000ED04DC13ED130F043D120F031F49F3F0A
:1004B00011F41EF433C10EF4E095E7FB29C1E92FD6
:1004C0004FD180F3BA17620773078407950718F0B6
:1004D00071F49EF567C10EF4E0950B2EBA2FA02D96
:1004E0000B01B90190010C01CA01A0011124FF27E1
:1004F000591B99F0593F50F4503E68F11A16F040DC
:10050000A22F232F342F4427585FF3CF46953795DA
:100510002795A795F0405395C9F77EF41F16BA0B9F
:10052000620B730B840BBAF09150A1F0FF0FBB1F4D
:10053000661F771F881FC2F70EC0BA0F621F731F96
:10054000841F48F4879577956795B795F7959E3FF3
:1005500008F0B3CF9395880F08F09927EE0F979581
:10056000879508950CD0EBC0E3D040F0DAD030F09E
:1005700021F45F3F19F0CCC0511115C1CFC0F0D0AC
:1005800098F39923C9F35523B1F3951B550BBB275A
:10059000AA2762177307840738F09F5F5F4F220F07
:1005A000331F441FAA1FA9F333D00E2E3AF0E0E800
:1005B00030D091505040E695001CCAF729D0FE2F4C
:1005C00027D0660F771F881FBB1F261737074807DE
:1005D000AB07B0E809F0BB0B802DBF01FF27935894
:1005E0005F4F2AF09E3F510568F092C0DCC05F3F2C
:1005F000ECF3983EDCF3869577956795B795F7957C
:100600009F5FC9F7880F911D9695879597F9089573
:10061000E1E0660F771F881FBB1F6217730784070F
:10062000BA0720F0621B730B840BBA0BEE1F88F71E
:10063000E095089504D06894B111B5C0089598D09C
:1006400088F09F5790F0B92F9927B751A0F0D1F0BB
:10065000660F771F881F991F1AF0BA95C9F712C045
:10066000B13081F09FD0B1E008959CC0672F782F02
:100670008827B85F39F0B93FCCF3869577956795B1
:10068000B395D9F73EF490958095709561957F4F1D
:100690008F4F9F4F0895E89409C097FB3EF49095C3
:1006A0008095709561957F4F8F4F9F4F9923A9F04B
:1006B000F92F96E9BB279395F695879577956795DA
:1006C000B795F111F8CFFAF4BB0F11F460FF1BC01E
:1006D0006F5F7F4F8F4F9F4F16C0882311F096E9B1
:1006E00011C0772321F09EE8872F762F05C066235F
:1006F00071F096E8862F70E060E02AF09A95660F18
:10070000771F881FDAF7880F9695879597F90895D0
:1007100097F99F6780E870E060E008959FEF80ECB4
:10072000089500240A941616170618060906089557
:1007300000240A9412161306140605060895092EBD
:100740000394000C11F4882352F0BB0F40F4BF2B2C
:1007500011F460FF04C06F5F7F4F8F4F9F4F08956C
:1007600057FD9058440F551F59F05F3F71F0479562
:10077000880F97FB991F61F09F3F79F08795089547
:10078000121613061406551FF2CF4695F1DF08C066
:10079000161617061806991FF1CF86957105610583
:1007A00008940895E894BB2766277727CB0197F92B
:0607B0000895F894FFCF4C
:1007B60001000451756575652069732066756C6C5A
:1007C6002100517565756520697320656D707479B2
:0207D600210000
:00000001FF
